:1000000055C0000070C000006EC000006CC0000051
:100010006AC0000068C0000066C0000064C0000044
:1000200062C0000060C000005EC000005CC0000054
:100030005AC00000F0C0000056C0000054C00000CC
:1000400052C0000050C000004EC000004CC0000074
:100050004AC0000048C0000046C0000044C0000084
:1000600042C0000040C000003EC000003CC0000094
:100070003AC0000038C0000036C0000034C00000A4
:1000800032C0000030C000002EC000003C02480218
:1000900051026B028902A702C502E302ED025C0372
:1000A0005C03F002090322033B03540311241FBE27
:1000B000CFEFD0E4DEBFCDBF11E0A0E0B1E0EEEBCA
:1000C000F9E000E00BBF02C007900D92A036B10727
:1000D000D9F721E0A0E6B1E001C01D92A338B20734
:1000E000E1F7EBD26AC48CCF181619065CF00895BC
:1000F000000021503109E1F74F5F5F4F84179507EA
:1001000019F4089540E050E027E033E0F1CF28985B
:100110008BB9299A0000299882E090E0E5CF0895F4
:1001200081E0F5CF0895813118F48158F0CF08951A
:100130008155EDCF089584E690E0D6DF88E3E7DFD0
:1001400086E0E5DF8FE0E3DF81E0E1DF8AE090E059
:10015000CBCF0895289A8BB9299A0000299881E07D
:1001600090E0C2CF08950F931F93CF93DF93182F82
:10017000EB01D6DF8881882351F001E0010F812F48
:10018000D2DF8991E7DF102F88818111F6CFDF91CF
:10019000CF911F910F9108950F931F93CF93DF93EA
:1001A0008B01883068F4880F880F880F805CAFDF80
:1001B000E801085F1F4F8991CDDFC017D107D9F73C
:1001C00080E8A5DFDF91CF911F910F9108958BE01B
:1001D000809381008DE790E0909389008093880060
:1001E00082E080936F0010928500109284008091CD
:1001F000140190911501A0911601B09117018093FF
:100200007B0190937C01A0937D01B0937E018FB719
:1002100080688FBF08951F920F920FB60F9211241E
:100220008F939F93AF93BF9380917B0190917C01BB
:10023000A0917D01B0917E010197A109B109809340
:100240007B0190937C01A0937D01B0937E01892B6B
:100250008A2B8B2B99F481E080937F01809114018C
:1002600090911501A0911601B091170180937B0127
:1002700090937C01A0937D01B0937E01BF91AF91DB
:100280009F918F910F900FBE0F901F9018956093C4
:1002900014017093150180931601909317016093D8
:1002A0007B0170937C0180937D0190937E01089582
:1002B00042DF36DF68E471E081E055DF60E471E041
:1002C00080E06ADF81E12FDF80E044DF68E371E0F6
:1002D00081E062DF82E127DF81E03CDF60E371E003
:1002E00082E05ADF83E11FDF82E034DF68E271E001
:1002F00083E052DF84E117DF83E02CDF60E271E00E
:1003000084E04ADF85E10FDF84E024DF60E371E011
:1003100085E042DF86E107DF85E01CDF68E371E00E
:1003200086E03ADF87E1FFDE86E014DF68E171E016
:1003300087E032DF88E1F7DE87E00CCF0895FBDE4F
:10034000EFDE68E571E081E00EDF87E0ECDE8091B2
:100350007801805DFFCE0895EEDEE2DE64E571E0B7
:1003600081E001DF8BE0DFDE84E190E0D5D2809395
:100370008101609178017091790190E0861797076B
:1003800024F484E190E0D0D205C084E190E0C4D2AE
:100390008093810180918101805DDCCE0895809100
:1003A00082018230A1F128F4882341F08130D9F014
:1003B00044C0833079F08430E9F13FC01B993FC0DD
:1003C0001D9B3DC01A9B3BC01C9B39C083E08093A2
:1003D000820108951B9B04C081E08093820131C09B
:1003E000109282012CC01B990AC01D9908C01C994B
:1003F00006C01A9904C084E0809382010895809118
:100400007A018823F1F082E0809382011CC01B995D
:100410000AC01D9908C01C9906C01A9904C084E03E
:1004200080938201089580917A0181110CC010920D
:10043000820105C01092820102C01092820138CF61
:1004400008957DCF089588CF089558D2837090780D
:10045000992324F401978C6F9F6F0196019608955C
:10046000E09180018E2F90E08830910508F0B3C0B4
:10047000FC01EA5BFF4FF2C11B99AFC01D9BADC0F1
:100480001A9BABC01C9BA9C081E08093800108959A
:100490001B9B04C082E0809380010895109280012C
:1004A0009CC0D3DFE82F80937601909377018091F1
:1004B0007A01813021F487E080938001F5C0E093D8
:1004C00080018E2F90E08830910508F0F3C0FC0188
:1004D000E25BFF4FC3C11B9909C01D9907C01A9960
:1004E00005C01C9903C01092800177C01B990DC0F4
:1004F0008091780190917901019690937901809390
:10050000780182E080938001089582E080938001E9
:1005100008951B9909C01D9907C01C9905C01A9917
:1005200003C01092800159C01D990DC080917801BF
:10053000909179010196909379018093780182E0FE
:1005400080938001089582E08093800108951B9933
:1005500009C01D9907C01C9905C01A9903C01092C3
:1005600080013BC01C990DC0809178019091790168
:100570000196909379018093780182E080938001C5
:10058000089582E08093800108951B9909C01D9908
:1005900007C01C9905C01A9903C0109280011DC0A4
:1005A0001A990DC0809178019091790101969093EC
:1005B00079018093780182E080938001089582E040
:1005C00080938001089580917A0181116DC082E04D
:1005D0008093800108951092800112B818B8089590
:1005E000ECE0F1E090818181892B9281892B9381CC
:1005F000892B9481892B9581892B9681892B9781D1
:10060000892B82B9E4E0F1E096818781892388B95A
:100610000895ECE0F1E090818181892B9281892B12
:100620009381892B9481892B9581892B9681892BA4
:100630009781892B82B9E4E0F1E09081818189235F
:1006400088B90895ECE0F1E090818181892B82B92D
:10065000E4E0F1E090818181892392818923938173
:100660008923948189239581892396818923978180
:10067000892388B90895ECE0F1E096818781892B80
:1006800082B9E4E0F1E0908181818923928189231C
:100690009381892394818923958189239681892354
:1006A0009781892388B90895809178019091790183
:1006B00053CE089512B818B80895CF93DF9300D0A1
:1006C00000D0CDB7DEB78FEF81B912B887B918B8AF
:1006D00093E494B99CE995B98AB91BB8EBE6F1E0CB
:1006E000FA83E983A0E6B1E0BC83AB835181428108
:1006F0003381248111968D909D90AD90BC9014977C
:1007000002C04B015C01652F742F832F922FA5012E
:10071000940182D0582D492D3A2D2B2D611571054C
:100720008105910571F7EBE6F1E0108284E690E037
:10073000A0E0B0E081839283A383B4838583968312
:10074000A783B0872FEC31E032872187E0E6F1E024
:10075000108281839283A383B48385839683A78346
:10076000B08780E392E09287818764E670E080E062
:1007700090E08DDD2CDD7E0185E0E80EF11C80919E
:100780007A01813021F412B818B8E6DD41C0811138
:100790003FC005DE65DE3CC0D6010D911D916D01A7
:1007A000F801458156816781708581819281A3819D
:1007B000B481481759076A077B0779F4808101845F
:1007C000F285E02D082E000C990B0995D8018C9329
:1007D000F8011582168217821086F80185819681AC
:1007E000A781B085880D991DAA1DBB1D85839683A1
:1007F000A783B087CE14DF0479F680917F01811141
:10080000BECF10927F0180917F018823D1F3B7CFB3
:10081000CE0101966C01C0CFA1E21A2EAA1BBB1B10
:10082000FD010DC0AA1FBB1FEE1FFF1FA217B307BC
:10083000E407F50720F0A21BB30BE40BF50B661FD2
:10084000771F881F991F1A9469F760957095809596
:1008500090959B01AC01BD01CF010895EE0FFF1FE4
:100860000024001C0BBE0790F691E02D09948F9296
:100870009F92AF92BF92CF92DF92EF92FF92CF936F
:10088000DF93EC01688179818A819B816115710513
:100890008105910521F464E279ED8BE597E02DE186
:1008A00033EF41E050E04ED049015A019B01AC01C9
:1008B000A7EAB1E463D06B017C01ACEEB4EFA50113
:1008C000940168D0DC01CB018C0D9D1DAE1DBF1DB8
:1008D000B7FF03C00197A109B04888839983AA8311
:1008E000BB839F77DF91CF91FF90EF90DF90CF9008
:1008F000BF90AF909F908F900895B9CF80E091E026
:10090000B6CFA0E0B0E08093000190930101A093E6
:100910000201B09303010895F999FECF92BD81BD04
:10092000F89A992780B50895262FF999FECF1FBA16
:1009300092BD81BD20BD0FB6F894FA9AF99A0FBE08
:1009400001960895052E97FB16F400940FD057FDDD
:1009500005D062DF07FC02D046F408C050954095F0
:10096000309521953F4F4F4F5F4F0895909580955B
:10097000709561957F4F8F4F9F4F08950FD0A59F22
:10098000900DB49F900DA49F800D911D112408958A
:10099000B7FFF4CFF3DF821B930B0895A29FB00142
:1009A000B39FC001A39F700D811D1124911DB29FA3
:0E09B000700D811D1124911D0895F894FFCF44
:1009BE0001000000FEFDFBF7EFDFBF7F0102040820
:1009CE0010204080010000001F0703030303071FD0
:1009DE000000000000180E030000000000030E18B7
:1009EE0000040A15150A040000001F00001F000075
:1009FE001F1C181818181C1F757020746F20737424
:100A0E00617274006869676873636F72653A20007B
:00000001FF
