S00C000044656D6F2E7372656393
S113000055C0000070C000006EC000006CC000004D
S11300106AC0000068C0000066C0000064C0000040
S113002062C0000060C000005EC000005CC0000050
S11300305AC00000F7C0000056C0000054C00000C1
S113004052C0000050C000004EC000004CC0000070
S11300504AC0000048C0000046C0000044C0000080
S113006042C0000040C000003EC000003CC0000090
S11300703AC0000038C0000036C0000034C00000A0
S113008032C0000030C000002EC000001D02290252
S11300902F02490258026702760285028E02580333
S11300A091029C02C702F2021D03480311241FBEE1
S11300B0CFEFD0E4DEBFCDBF11E0A0E0B1E0ECE7CC
S11300C0F9E000E00BBF02C007900D92A036B10723
S11300D0D9F721E0A0E6B1E001C01D92A738B2072C
S11300E0E1F7E7D249C48CCFF999FECF92BD81BD27
S11300F0F89A80B50895181619065CF00895000062
S113010021503109E1F74F5F5F4F8417950719F4C8
S1130110089540E050E027E033E0F1CF28988BB910
S1130120299A0000299882E090E0E5CF089581E0C3
S1130130F5CF0895813118F48158F0CF0895815591
S1130140EDCF089584E690E0D6DF88E3E7DF86E02C
S1130150E5DF8FE0E3DF81E0E1DF8AE090E0CBCF11
S11301600895289A8BB9299A0000299881E090E093
S1130170C2CF08950F931F93CF93DF93182FEB01F2
S1130180D6DF8881882351F001E0010F812FD2DF6F
S11301908991E7DF102F88818111F6CFDF91CF910C
S11301A01F910F9108950F931F93CF93DF938B01AA
S11301B0883068F4880F880F880F805CAFDFE8010F
S11301C0085F1F4F8991CDDFC017D107D9F780E8A9
S11301D0A5DFDF91CF911F910F9108958BE080935C
S11301E081008DE790E0909389008093880082E0FD
S11301F080936F0010928500109284008091140106
S113020090911501A0911601B09117018093790185
S113021090937A01A0937B01B0937C018FB780689F
S11302208FBF08951F920F920FB60F9211248F93D0
S11302309F93AF93BF938091790190917A01A0919C
S11302407B01B0917C010197A109B10980937901E7
S113025090937A01A0937B01B0937C01892B8A2B24
S11302608B2B99F481E080937D018091140190910E
S11302701501A0911601B091170180937901909313
S11302807A01A0937B01B0937C01BF91AF919F91C0
S11302908F910F900FBE0F901F90189560931401CB
S11302A0709315018093160190931701609379015F
S11302B070937A0180937B0190937C01089542DFCF
S11302C036DF68E471E081E055DF60E471E080E0EE
S11302D06ADF81E12FDF80E044DF68E371E081E0E1
S11302E062DF82E127DF81E03CDF60E371E082E0EE
S11302F05ADF83E11FDF82E034DF68E271E083E0EC
S113030052DF84E117DF83E02CDF60E271E084E0F8
S11303104ADF85E10FDF84E024DF60E371E085E0FC
S113032042DF86E107DF85E01CDF68E371E086E0F9
S11303303ADF87E1FFDE86E014DF68E171E087E001
S113034032DF88E1F7DE87E00CCF0895F0DE68E560
S113035071E081E00FDF87E0EDDE80918101805D57
S113036000CF0895E4DE64E571E081E003DF8BE013
S1130370E1DE84E190E0B8DE80938301089580910A
S11303808601813091F028F08230A9F0833029F180
S113039035C01A9935C01D9B33C01C9B31C01B9BB3
S11303A02FC081E08093860108951A9B2EC082E0BD
S11303B08093860127C01A9904C01D9902C01B9B13
S11303C083B180917801813021F483E080938601A8
S11303D01BC082E08093860115C01A9904C01D9940
S11303E002C01B9B83B180917801813021F483E0AA
S11303F08093860109C01092860102C01092860182
S11304005ECF0895A3CF0895ADCF08956CD28370C5
S11304109078992324F401978C6F9F6F019603962B
S11304200895E09180018E2F90E08830910508F0C6
S113043073C0FC01EA5BFF4F06C21A996FC01D9B93
S11304406DC01C9B6BC01B9B69C081E080938001C5
S113045008951A9B2DC182E08093800162C0D6DF8B
S1130460E82F80937E0190937F0180917801813001
S113047021F487E0809380010BC1E09380018E2FEB
S113048090E08830910508F013C1FC01E25BFF4F56
S1130490DAC11A9909C01D9907C01C9905C01B9996
S11304A003C0109280013AC082E08093800139C079
S11304B01A9909C01D9907C01B9905C01C9903C04E
S11304C0109280012BC082E0809380012AC01A9987
S11304D009C01D9907C01B9905C01C9903C010923F
S11304E080011CC082E0809380011BC01A9909C05E
S11304F01D9907C01B9905C01C9903C01092800167
S11305000DC082E0809380010CC08091780181113C
S1130510BFC01092800102C01092800112B818B8B6
S1130520089580917601909177014E970CF4C0C0A4
S113053081E0809378010895ECE0F1E0908181817D
S1130540892B9281892B9381892B9481892B958185
S1130550892B9681892B9781892B82B9E4E0F1E07C
S113056096818781892388B980917601909177015A
S1130570019690937701809376012FE38DE093E0C9
S1130580215080409040E1F700C000000895ECE065
S1130590F1E090818181892B9281892B9381892B30
S11305A09481892B9581892B9681892B9781892B1D
S11305B082B9E4E0F1E090818181892388B9809156
S11305C0760190917701019690937701809376015B
S11305D02FE38DE093E0215080409040E1F700C08C
S11305E000000895ECE0F1E090818181892B82B9CB
S11305F0E4E0F1E0908181818923928189239381D0
S113060089239481892395818923968189239781DC
S1130610892388B98091760190917701019690930E
S11306207701809376012FE38DE093E021508040A1
S11306309040E1F700C000000895ECE0F1E09681FD
S11306408781892B82B9E4E0F1E09081818189235B
S11306509281892393818923948189239581892394
S1130660968189239781892388B980917601909115
S11306707701019690937701809376012FE38DE0C3
S113068093E0215080409040E1F700C000000895BD
S113069069DE10927701109276012FE784E89EE1DB
S11306A0215080409040E1F700C000001092780192
S11306B00895CF93DF9300D000D0CDB7DEB78FEF8E
S11306C081B912B887B918B893EC94B99CE395B979
S11306D08AB91BB8EBE6F1E0FA83E983A0E6B1E05E
S11306E0BC83AB83518142813381248111968D90E7
S11306F09D90AD90BC90149702C04B015C01652F96
S1130700742F832F922FA50194017BD0582D492D4E
S11307103A2D2B2D611571058105910571F7EBE6D5
S1130720F1E0108284E690E0A0E0B0E0818392835F
S1130730A383B48385839683A783B0872FEB31E0AB
S113074032872187E0E6F1E0108281839283A383DC
S1130750B48385839683A783B08781E192E09287EF
S11307608187C501B4019ADD39DD7E0185E0E80E9B
S1130770F11C809178018130E1F512B818B8F2DDEE
S113078038C0D6010D911D916D01F8014581568146
S11307906781708581819281A381B481481759074B
S11307A06A077B0779F480810184F285E02D082EA5
S11307B0000C990B0995D8018C93F80115821682C7
S11307C017821086F80185819681A781B085880DEE
S11307D0991DAA1DBB1D85839683A783B087CE145C
S11307E0DF0479F680917D018823E1F310927D0185
S11307F0C0CF809178018111F5CFCE0101966C01B3
S1130800C0CFA1E21A2EAA1BBB1BFD010DC0AA1F5B
S1130810BB1FEE1FFF1FA217B307E407F50720F065
S1130820A21BB30BE40BF50B661F771F881F991FE0
S11308301A9469F760957095809590959B01AC0129
S1130840BD01CF010895EE0FFF1F0024001C0BBE55
S11308500790F691E02D09948F929F92AF92BF92E8
S1130860CF92DF92EF92FF92CF93DF93EC016881F6
S113087079818A819B81611571058105910521F436
S113088064E279ED8BE597E02DE133EF41E050E050
S113089038D049015A019B01AC01A7EAB1E44DD01B
S11308A06B017C01ACEEB4EFA501940152D0DC01E4
S11308B0CB018C0D9D1DAE1DBF1DB7FF03C001975D
S11308C0A109B04888839983AA83BB839F77DF916A
S11308D0CF91FF90EF90DF90CF90BF90AF909F901B
S11308E08F900895B9CF80E091E0B6CFA0E0B0E05A
S11308F08093000190930101A0930201B09303013E
S11309000895052E97FB16F400940FD057FD05D0DB
S113091078DF07FC02D046F408C050954095309526
S113092021953F4F4F4F5F4F089590958095709557
S113093061957F4F8F4F9F4F08950FD0A59F900DC6
S1130940B49F900DA49F800D911D11240895B7FFAD
S1130950F4CFF3DF821B930B0895A29FB001B39FE2
S1130960C001A39F700D811D1124911DB29F700DB4
S10F0970811D1124911D0895F894FFCFFF
S113097C01000000FEFDFBF7EFDFBF7F010204085E
S113098C10204080010000001F0703030303071F0E
S113099C0000000000180E030000000000030E18F5
S11309AC00040A15150A040000001F00001F0000B3
S11309BC1F1C181818181C1F757020746F20737462
S11309CC617274006869676873636F72653A2000BA
S9030000FC
